:030000000207A64E
:0C07A600787FE4F6D8FD7581680207ED4D
:0500030025640D0A0058
:1008AD00013D000227000002440258C10AC10B0499
:1008BD004A00000000044000000000022202000275
:1008CD004E020002240200023E0064C18CC10901E7
:0208DD002600F3
:0B097D0012094EAF3D1209040209618F
:1008760012097DAD49AC487F53120938300B23125B
:1008860008E07527007528FFAD47AC467F42120980
:10089600381208E0AD45AC447F511209381208E021
:0708A600C20B1208E080CC38
:100938008C508D511209717BFF7A007903855055CF
:060948008551560200700B
:10094E0053877F759850759CFD438E04438E0143EB
:03095E008E1022D6
:0C097100C2998F993099FDC299AF99226C
:0408E0007F8A7E008D
:1008E400E4FDFCC3ED9FEC9E5015E4FBFA0BBB004A
:0F08F400010AEB64644A70F50DBD00010C80E44D
:0109030022D1
:10096100438901758ACD758CF8D28CD2A9D2AF2278
:100904007401A807088002C333D8FCF59DE4F5BD43
:0B091400F5BE43A204EF4488F5BC22AE
:02091F00AD0722
:1009210075BC00AFBDEF7F00FEACBEEC2FFFE43E17
:06093100FEED448842BC0B
:01093700229D
:03000B0002036A83
:10036A00C0E0C0F0C083C082C0D075D000C000C059
:0D037A0001C002C003C004C005C006C007DA
:10038700E4FBFAC2AF758ACD758CF8AF3D12091F31
:100397008E488F49E54D2402F54DE4354CF54CE484
:1003A700354BF54BE4354AF54AAE42AF43AC4CAD5D
:1003B7004DC3ED9FF567EC9EF566C3E5499525E5C9
:1003C700489524502BAE44AF457C007D051205BFF0
:1003D7007C007D031205ADD3E5679FE5669E40105F
:1003E700E549954FE548954E500685484E85494F56
:1003F700D3E5499525E54895244011D3E54995234B
:10040700E54895224006854822854923D3E5679428
:10041700FAE56664809480500302051FD3E5499589
:1004270025E5489524500302051F300A0302051FDE
:10043700AE44AF457C007D051205BF7C007D0312ED
:1004470005ADD3E5679FE5669E500302051FD20AF7
:10045700AE42AF43AC4CAD4DED9FF545EC9EF54438
:10046700AF4DAE4CAD4BAC4A8F438E428D418C4065
:10047700300918C209756800E56825E02429F8A63F
:100487004408A6450568E568B40AED300C09C20CB6
:10049700D209D2AF020592756800E56825E0242BE2
:1004A700F8E6FE08E6FFE56825E02429F8A6060831
:1004B700A607E56825E02429F8E6FE08E62BFBEE0B
:1004C7003AFA0568E568B409D185443B85453CE5BA
:1004D7003C2BFBE53B3A7C007D0AAF03FE1205BFD0
:1004E700AA06AB07E4F9F87F607EEAFDFC12083242
:1004F7008E468F47D3E54794C8E546940040067576
:1005070046007547C8C3E547941EE5469400500664
:1005170075460075471ED20BC3E5499525E54895F5
:10052700245033300A30C20AC3E523954FF53FE51F
:1005370022954EF53EAE3EAF3F7C007D021206147B
:10054700E54F2FF525E54E3EF52485242285252305
:1005570085244E85254FD3E56794C4E5666480946A
:1005670089402675240275250075220275230075BA
:100577004E02754F00AF4DAE4CAD4BAC4A8F438E1C
:0B058700428D418C40D20CC209D2AF63
:10059200D007D006D005D004D003D002D001D000BD
:0B05A200D0D0D082D083D0F0D0E03267
:1007B200020876E493A3F8E493A34003F68001F2DF
:1007C20008DFF48029E493A3F85407240CC8C33348
:1007D200C4540F4420C8834004F456800146F6DF17
:1007E200E4800B01020408102040809008ADE47EF2
:1007F200019360BCA3FF543F30E509541FFEE4930C
:10080200A360010ECF54C025E060A840B8E493A3D2
:10081200FAE493A3F8E493A3C8C582C8CAC583CAFD
:10082200F0A3C8C582C8CAC583CADFE9DEE780BEB5
:0108DF000018
:1005AD00EF8DF0A4A8F0CF8CF0A428CE8DF0A42E62
:0205BD00FE221C
:1005BF00BC000BBE0029EF8DF084FFADF022E4CC20
:1005CF00F875F008EF2FFFEE33FEEC33FCEE9DECE9
:1005DF00984005FCEE9DFE0FD5F0E9E4CEFD22ED2F
:1005EF00F8F5F0EE8420D21CFEADF075F008EF2F79
:1005FF00FFED33FD4007985006D5F0F222C398FD6A
:05060F000FD5F0EA2206
:10061400C2D5EC30E709B2D5E4C39DFDE49CFCEE01
:1006240030E715B2D5E4C39FFFE49EFE1205BFC3B5
:10063400E49DFDE49CFC80031205BF30D507C3E4B0
:060644009FFFE49EFE2270
:10083200C2D5E830E70FB2D5E4C39BFBE49AFAE4F1
:1008420099F9E498F8EC30E717B2D5120868120665
:10085200DEE4C39BFBE49AFAE499F9E498F8800396
:100862001206DE30D50DE4C39FFFE49EFEE49DFD3B
:04087200E49CFC22E4
:10000E00E5612455F8E605612278523007027855ED
:10001E00E475F00112077002064A2000EB7F2ED223
:10002E00008018EF540F2490D43440D4FF30040BCA
:10003E00EF24BFB41A0050032461FFE5626002157D
:10004E00620565E5657002056430070D7852E4754A
:10005E00F001120770EF0206900209717403D207C5
:10006E008003E4C207F5618B528A538954E4F5622A
:10007E00F564F565E56260077F2012004980F5752D
:10008E0063FFC201C200C202C203C205C206C20899
:10009E00120017FF700D3007057F0012005AAF6572
:1000AE00AE6422B4255FC2D5C204120017FF24D05D
:1000BE00B40A00501A75F00A786230D50508B6FFFA
:1000CE000106C6A426F620D5047002D20380D924D8
:1000DE00CFB41A00EF5004C2E5D20402025AD20184
:1000EE0080C6D20080C0D20280BCD2D580BAD205E2
:1000FE0080B47F201200492002077401B5620040CF
:10010E00F112000EFF120049020082D208D20680C0
:10011E009512000EFB12000EFA12000EF94A4B70E9
:10012E0006792B7A037BFF20022EE562602A7E0081
:10013E008E8275830012066360060EEE656370F0A4
:10014E00C2D5EBC0E0EAC0E0E9C0E0EE1202A1D0F9
:10015E00E0F9D0E0FAD0E0FB12064AFF60AAEBC04D
:10016E00E0EAC0E0E9C0E0120049D0E02401F9D095
:10017E00E03400FAD0E0FBE5630460DCD563D9809F
:10018E00877BFF7A02799DD202809C79108002795A
:10019E0008C206C2088008D2D5790A8004790AC23C
:1001AE00D5E563047002F563E4FAFDFEFF12000E5E
:1001BE00FC7B0820011312000EFD7B1030000A128A
:1001CE00000EFE12000EFF7B20EC3382D592D5502E
:1001DE0013C3E43000069FFFE49EFEE42001039D5E
:1001EE00FDE49CFCE4CBF8C201EC700CCFCECDCC80
:1001FE00E824F8F870F38017C3EF33FFEE33FEED0B
:10020E0033FDEC33FCEB33FB994002FB0FD8E9EBEB
:10021E00300105F8D0E0C448B201C0E00AEC4D4E02
:10022E004F78207B0070C2EAB5630040BCC0E0127C
:10023E0002A3D0F0D0E0200104C4C0E0C4B201C0DB
:10024E00F0120032D0F0D5F0EB02008212078001DE
:10025E001F5301995800F04C00EC42019D4F01A52F
:0F026E004401A54901054301AB55018F46018F9E
:10027D0045018F47034B5000F42D00F82E011B2B29
:10028D0000FC2301192003342A00B4480000011397
:10029D003F3F3F00790AA2D5200314300509B9105C
:1002AD00020404B9080104A2D5200602500104205D
:1002BD0002689202B562005034C0E07F203003190D
:1002CD007F30A20272067205500F1202FAC202C2EC
:1002DD0006C205C2087F30800F300503E9C0E01269
:1002ED000049300503D0E0F9D0E0B562CC300517F8
:1002FD007F30B9100C1200497F583004077F788089
:10030D0003B908031200493002057F2D0200497F11
:10031D00202008F87F2B2006F322920280CF286E32
:10032D00756C6C2900D20112000E3001F8C20178F3
:10033D006230D50108F60200B42D50434958120021
:10034D000E2403B405004001E49003469312003AD5
:0D035D00743A12003AD2037562040201994D
:10064A00BB010689828A83E0225002E722BBFE02AE
:09065A00E32289828A83E49322E1
:10066300BB010CE58229F582E5833AF583E022504C
:1006730006E92582F8E622BBFE06E92582F8E22296
:0D068300E58229F582E5833AF583E49322B0
:10069000BB010689828A83F0225002F722BBFE0149
:0206A000F32243
:1006A20075F008758200EF2FFFEE33FECD33CDCC0F
:1006B20033CCC58233C5829BED9AEC99E582984092
:1006C2000CF582EE9BFEED9AFDEC99FC0FD5F0D66F
:1006D200E4CEFBE4CDFAE4CCF9A88222B800C1B999
:1006E2000059BA002DEC8BF084CFCECDFCE5F0CBD7
:1006F200F97818EF2FFFEE33FEED33FDEC33FCEB10
:1007020033FB10D703994004EB99FB0FD8E5E4F9CA
:10071200FA227818EF2FFFEE33FEED33FDEC33FCB7
:10072200C933C910D7059BE99A4007EC9BFCE99AAB
:10073200F90FD8E0E4C9FAE4CCFB2275F010EF2FF0
:10074200FFEE33FEED33FDCC33CCC833C810D707F0
:100752009BEC9AE899400AED9BFDEC9AFCE899F82B
:0E0762000FD5F0DAE4CDFBE4CCFAE4C8F922BE
:10077000FAE6FB0808E6F925F0F618E6CA3AF6228A
:10078000D083D082F8E4937012740193700DA3A308
:1007900093F8740193F5828883E47374029368601C
:0607A000EFA3A3A380DF1C
:00000001FF
